:100000000C942A000C9447000C9447000C94470071
:100010000C9447000C9447000C9447000C94470044
:100020000C9447000C9447000C9447000C94470034
:100030000C9447000C9447000C9447000C94470024
:100040000C9447000C9447000C9447000C94470014
:100050000C94470011241FBECFE5D8E0DEBFCDBF12
:1000600010E0A0E6B0E0E8E9F4E202C005900D92ED
:10007000AE37B107D9F710E0AEE7B0E001C01D928E
:10008000A738B107E1F70E94D40D0C944A120C94E2
:100090000000EF92FF920F931F937B018C0120E0F1
:1000A00030E040E05FE40E94F50388238CF0C80153
:1000B000B70120E030E040E05FE40E94C1010E940F
:1000C00055049B01AC01205030404040504806C0D0
:1000D000C801B7010E9455049B01AC01B901CA01D6
:1000E0001F910F91FF90EF900895A0E0B0E0EBE733
:1000F000F0E00C94810FDC012B01FA019C9192300D
:1001000008F439C1EB018881823008F433C194309E
:1001100069F4843009F02FC111969C91119789815F
:10012000981709F428C1A5E7B0E025C1843009F487
:1001300021C18230A9F4923009F01DC19A01AD01AC
:1001400088E0EA010990AE01E90109929E0181501F
:10015000C1F7E201898111969C918923818308C1AD
:10016000923009F407C112962D903C901397EB0141
:100170008A819B811496AD90BD90CD90DC901797AD
:10018000EC80FD800E811F819101281B390BB90184
:1001900037FF04C066277727621B730B6032710537
:1001A0000CF061C0121613066CF537014801062EDB
:1001B00004C096948794779467940A94D2F721E0C8
:1001C00030E040E050E004C0220F331F441F551FB1
:1001D0006A95D2F721503040404050402E213F21B7
:1001E00040235123211531054105510521F021E01E
:1001F00030E040E050E079018A01E628F72808293C
:1002000019293CC0232BD1F1260E371E350146019A
:10021000062E04C096948794779467940A94D2F734
:1002200021E030E040E050E004C0220F331F441FC3
:10023000551F6A95D2F721503040404050402A2146
:100240003B214C215D21211531054105510521F04E
:1002500021E030E040E050E059016A01A628B728CB
:10026000C828D9280BC0821593052CF01C01AA249C
:10027000BB24650103C0EE24FF24870111969C91E5
:10028000D20111968C91981709F445C0992339F041
:10029000A80197012A193B094C095D0906C0A6016E
:1002A00095012E193F09400B510B57FD08C01182D3
:1002B0003382228224833583468357831DC081E0A5
:1002C00081833382228288279927DC01821B930B4A
:1002D000A40BB50B84839583A683B7830DC0220F2F
:1002E000331F441F551F24833583468357838281E0
:1002F000938101979383828324813581468157813D
:10030000DA01C9010197A109B1098F5F9F4FAF4F72
:10031000BF4328F30BC0918333822282EA0CFB1C7B
:100320000C1D1D1DE482F5820683178383E0808304
:10033000248135814681578157FF1AC0C901AA27F8
:1003400097FDA095BA2F81709070A070B0705695EF
:10035000479537952795822B932BA42BB52B848318
:100360009583A683B7838281938101969383828349
:10037000DF0101C0D201CD01CDB7DEB7E2E10C94BF
:100380009D0FA0E2B0E0E7ECF1E00C948D0F6983E3
:100390007A838B839C832D833E834F835887E9E048
:1003A000EE2EF12CEC0EFD1ECE010196B7010E943F
:1003B0007E058E010F5E1F4FCE010596B8010E948B
:1003C0007E058A8991E089278A8BC701B801AE0131
:1003D000475E5F4F0E9475000E94A904A096E6E068
:1003E0000C94A90FA0E2B0E0E8EFF1E00C948D0FBF
:1003F00069837A838B839C832D833E834F835887C5
:10040000F9E0EF2EF12CEC0EFD1ECE010196B701A6
:100410000E947E058E010F5E1F4FCE010596B8012A
:100420000E947E05C701B801AE01475E5F4F0E9482
:1004300075000E94A904A096E6E00C94A90FA0E222
:10044000B0E0E5E2F2E00C94810F69837A838B835C
:100450009C832D833E834F835887CE010196BE0136
:10046000675F7F4F0E947E05CE010596BE016F5EDD
:100470007F4F0E947E059985923088F0898982306D
:10048000C8F0943019F4823051F404C0843029F457
:10049000923081F485E790E0C6C0923049F420E0C4
:1004A0009A858A89981321E02A87CE010996BBC0D4
:1004B000823049F420E09A858A89981321E02A8BBA
:1004C000CE014196B0C02D843E844F8458886D88FB
:1004D0007E888F88988CEE24FF248701AA24BB2471
:1004E000650140E050E060E070E0E0E0F0E0C10174
:1004F00081709070892BE9F0E60CF71C081D191D1E
:100500009A01AB012A0D3B1D4C1D5D1D80E090E062
:10051000A0E0B0E0E614F7040805190520F481E036
:1005200090E0A0E0B0E0BA01A901480F591F6A1F8E
:100530007B1FAA0CBB1CCC1CDD1C97FE08C081E0F5
:1005400090E0A0E0B0E0A82AB92ACA2ADB2A3196B6
:10055000E032F10549F0660C771C881C991C569412
:10056000479437942794C3CFFA85EA892B893C892D
:100570008B859C85280F391F2E5F3F4F17C0CA01FE
:1005800081709070892B61F016950795F794E79428
:1005900080E090E0A0E0B0E8E82AF92A0A2B1B2BC3
:1005A00076956795579547952F5F3F4F77FDE7CF36
:1005B0000CC0440F551F661F771F17FD4160EE0CDE
:1005C000FF1C001F111F21503040403090E05907A0
:1005D00090E0690790E4790760F32B8F3C8FDB0193
:1005E000CA018F779070A070B07080349105A1051A
:1005F000B10561F447FD0AC0E114F10401051105DC
:1006000029F0405C5F4F6F4F7F4F40781A8EFE1786
:1006100011F081E08A8F4D8F5E8F6F8F78A383E01A
:10062000898FCE0149960E94A904A096E2E10C941C
:100630009D0FA8E1B0E0EFE1F3E00C94890F69832E
:100640007A838B839C832D833E834F835887B9E0C5
:10065000EB2EF12CEC0EFD1ECE010196B7010E948F
:100660007E058E010F5E1F4FCE010596B8010E94D8
:100670007E052985223008F47EC03989323010F495
:10068000B8017CC08A859A8989278A87243011F02D
:10069000223031F4231709F06EC065E770E06EC0B8
:1006A000343039F41D861E861F86188A1C861B86E8
:1006B00004C0323021F484E08987B7015FC02B8504
:1006C0003C858B899C89281B390B3C872B87ED84C3
:1006D000FE840F851889AD88BE88CF88D88CEA142F
:1006E000FB040C051D0540F4EE0CFF1C001F111F40
:1006F000215030403C872B8720E030E040E050E044
:1007000080E090E0A0E0B0E460E070E0EA14FB0478
:100710000C051D0540F0282B392B4A2B5B2BEA18C2
:10072000FB080C091D09B695A79597958795EE0CC2
:10073000FF1C001F111F6F5F7F4F6F31710531F775
:10074000DA01C9018F779070A070B0708034910584
:10075000A105B10561F427FD0AC0E114F10401050A
:10076000110529F0205C3F4F4F4F5F4F20782D87B8
:100770003E874F87588BBE01675F7F4FCB010E943A
:10078000A9046896EAE00C94A50FA8E1B0E0EBECB0
:10079000F3E00C948D0F69837A838B839C832D8384
:1007A0003E834F83588789E0E82EF12CEC0EFD1E26
:1007B000CE010196B7010E947E058E010F5E1F4F8C
:1007C000CE010596B8010E947E058985823040F0F1
:1007D0008989823028F0C701B8010E94F60501C05E
:1007E0008FEF6896E6E00C94A90FA8E1B0E0EBEF7C
:1007F000F3E00C948D0F69837A838B839C832D8324
:100800003E834F83588789E0E82EF12CEC0EFD1EC5
:10081000CE010196B7010E947E058E010F5E1F4F2B
:10082000CE010596B8010E947E058985823040F090
:100830008989823028F0C701B8010E94F60501C0FD
:100840008FEF6896E6E00C94A90FA8E1B0E0EBE228
:10085000F4E00C948D0F69837A838B839C832D83C2
:100860003E834F83588789E0E82EF12CEC0EFD1E65
:10087000CE010196B7010E947E058E010F5E1F4FCB
:10088000CE010596B8010E947E058985823040F030
:100890008989823028F0C701B8010E94F60501C09D
:1008A00081E06896E6E00C94A90FACE0B0E0EBE5DF
:1008B000F4E00C94910F69837A838B839C83CE013F
:1008C0000196BE016B5F7F4F0E947E058D81823055
:1008D00061F1823050F1843021F48E81882351F10E
:1008E0002EC02F81388537FD20C06E812F31310514
:1008F0001CF06623F9F023C08EE190E0821B930B7D
:1009000029853A854B855C8504C056954795379572
:1009100027958A95D2F76623B1F05095409530958A
:1009200021953F4F4F4F5F4F0EC020E030E040E039
:1009300050E009C02FEF3FEF4FEF5FE704C020E02A
:1009400030E040E050E8B901CA012C96E2E00C9496
:10095000AD0FDF92EF92FF920F931F93FC01E480A3
:10096000F58006811781D1808081823048F480E053
:1009700090E0A0E1B0E0E82AF92A0A2B1B2BA5C0E1
:10098000843009F49FC0823021F4EE24FF248701D3
:1009900005C0E114F1040105110519F4E0E0F0E0EF
:1009A00096C0628173819FEF623879070CF05BC05B
:1009B00022E83FEF261B370B2A3131052CF020E0CF
:1009C00030E040E050E02AC0B801A701022E04C088
:1009D00076956795579547950A94D2F781E090E010
:1009E000A0E0B0E004C0880F991FAA1FBB1F2A9582
:1009F000D2F70197A109B1098E219F21A023B1232C
:100A00000097A105B10521F081E090E0A0E0B0E001
:100A10009A01AB01282B392B4A2B5B2BDA01C90138
:100A20008F779070A070B07080349105A105B105EA
:100A300039F427FF09C0205C3F4F4F4F5F4F04C080
:100A4000215C3F4F4F4F5F4FE0E0F0E02030A0E0EF
:100A50003A07A0E04A07A0E45A0710F0E1E0F0E00E
:100A600079018A0127C06038710564F5FB01E158FE
:100A7000FF4FD801C7018F779070A070B07080349D
:100A80009105A105B10539F4E7FE0DC080E490E0C1
:100A9000A0E0B0E004C08FE390E0A0E0B0E0E80E9A
:100AA000F91E0A1F1B1F17FF05C016950795F7941F
:100AB000E794319687E016950795F794E7948A9521
:100AC000D1F705C0EE24FF248701EFEFF0E06E2F91
:100AD000679566276795902F9F77D794DD24D794E5
:100AE0008E2F8695492F462B582F5D29B701CA01B5
:100AF0001F910F91FF90EF90DF900895FC01DB01B3
:100B0000408151812281622F6F7770E0221F22275E
:100B1000221F9381892F880F822B282F30E0991F65
:100B20009927991F11969C93119721153105A9F5C5
:100B3000411551056105710511F482E037C082E865
:100B40009FEF13969C938E9312979A01AB0167E0E7
:100B5000220F331F441F551F6A95D1F783E08C93F2
:100B60000DC0220F331F441F551F12968D919C916B
:100B70001397019713969C938E931297203080E0E1
:100B8000380780E0480780E4580758F314962D93FF
:100B90003D934D935C93179708952F3F310579F45A
:100BA000411551056105710519F484E08C93089590
:100BB00064FF03C081E08C9312C01C9210C02F57B9
:100BC000304013963C932E93129783E08C9387E0EA
:100BD000440F551F661F771F8A95D1F770641496CE
:100BE0004D935D936D937C93179708951F93DC014C
:100BF000FB019C91923008F447C08081823008F458
:100C000043C0943051F411961C91843099F5818140
:100C1000682F70E0611B71093FC0843021F0923071
:100C200031F48230B9F18181882389F12DC0119688
:100C30001C9111978230F1F081811817D9F4129626
:100C40002D913C911397828193818217930794F0A1
:100C500028173907BCF014968D919D910D90BC9189
:100C6000A02D2481358146815781281739074A07ED
:100C70005B0718F4112341F00AC082179307A407F9
:100C8000B50740F4112319F061E070E005C06FEF83
:100C90007FEF02C060E070E0CB011F910895DF9309
:100CA000CF93CDB7DEB7A6E5B0E0E6E5F0E0808112
:100CB0008E7F8C93E0E2F0E08AE08083CF91DF9139
:100CC0000895DF93CF93CDB7DEB7E6E5F0E084EA91
:100CD0008083E6E5F0E080818823DCF7E1E2F0E064
:100CE0008081887FCF91DF910895DF93CF93CDB737
:100CF000DEB7E6E5F0E084EA8083E6E5F0E08081B7
:100D00008823DCF7E1E2F0E08081887FCF91DF91FA
:100D10000895DF93CF9300D0CDB7DEB789836A8380
:100D2000E3E2F0E08981882F90E0880F991F982FE7
:100D30008A81892B8083E6E5F0E084E88083A6E55C
:100D4000B0E0E6E5F0E080818F7D8C93E6E5F0E0B1
:100D500080818823DCF7E1E2F0E08081887F0F90DA
:100D60000F90CF91DF910895DF93CF930F92CDB77E
:100D7000DEB78983E3E2F0E089818083E6E5F0E095
:100D800084E88083E6E5F0E080818823DCF7E1E217
:100D9000F0E08081887F0F90CF91DF910895DF93FD
:100DA000CF9300D000D00F92CDB7DEB79A8389835E
:100DB0006B838B81282F30E03D832C838C819D8138
:100DC000009751F02C813D812130310581F4E6E519
:100DD000F0E084EC80830BC0E6E5F0E084E88083FB
:100DE000A6E5B0E0E6E5F0E080818F7B8C93E6E558
:100DF000F0E080818823DCF7E3E2F0E08081E981A4
:100E0000FA818083E1E2F0E08081887F0F900F908B
:100E10000F900F900F90CF91DF910895DF93CF93B4
:100E2000CDB7DEB7E6E5F0E084E98083E1E2F0E00B
:100E30008081887FCF91DF910895DF93CF93CDB7E5
:100E4000DEB7E1E2F0E08081887FCF91DF91089505
:100E5000DF93CF93CDB7DEB7AFE4B0E0EFE4F0E0DF
:100E6000808180688C93AFE4B0E0EFE4F0E08081B3
:100E700081608C93AFE4B0E0EFE4F0E080818260C9
:100E80008C93AEE4B0E0EEE4F0E0808188608C9377
:100E9000AEE4B0E0EEE4F0E0808181608C9381E02C
:100EA00061E041E00E94AF07EFE4F0E08081882F2D
:100EB00090E0837090708330910599F4EEE4F0E057
:100EC0008081882F90E088709070009751F0EEE458
:100ED000F0E08081882F90E08770907081309105DC
:100EE00021F0E8E3F0E081E08083CF91DF91089585
:100EF000DF93CF9300D000D0CDB7DEB79C838B8338
:100F00004B815C81CA019C01220F331FC901969558
:100F1000982F882797958795821B930B840F951F91
:100F200024E630E0B9010E944B0FCB019A838983FC
:100F300089819A818F3F910529F020F08FEF90E011
:100F40009A838983EAE4F0E089819A81918380839E
:100F50000F900F900F900F90CF91DF910895DF9336
:100F6000CF93CDB7DEB727970FB6F894DEBF0FBE8D
:100F7000CDBF89836A834B838B81813009F06FC039
:100F80008981282F30E03F832E838E819F8181309D
:100F9000910549F12E813F81223031052CF48E815B
:100FA0009F81009761F0D2C02E813F8122303105B0
:100FB00071F18E819F8183309105E9F1C7C0AAE369
:100FC000B0E0EAE3F0E08081482F8A81282F30E00A
:100FD00081E090E0022E02C0880F991F0A94E2F788
:100FE000842B8C93B3C0A7E3B0E0E7E3F0E080810B
:100FF000482F8A81282F30E081E090E0022E02C045
:10100000880F991F0A94E2F7842B8C939FC0A4E366
:10101000B0E0E4E3F0E08081482F8A81282F30E0BF
:1010200081E090E0022E02C0880F991F0A94E2F737
:10103000842B8C938BC0A1E3B0E0E1E3F0E08081EE
:10104000482F8A81282F30E081E090E0022E02C0F4
:10105000880F991F0A94E2F7842B8C9377C08B81B9
:10106000882309F073C08981282F30E03D832C83C9
:101070008C819D818130910559F12C813D812230F7
:1010800031052CF48C819D81009769F05FC02C8123
:101090003D812230310589F18C819D81833091051C
:1010A00009F440C053C0AAE3B0E0EAE3F0E0808175
:1010B000482F8A81282F30E081E090E0022E02C084
:1010C000880F991F0A94E2F7809584238C933EC081
:1010D000A7E3B0E0E7E3F0E08081482F8A81282F82
:1010E00030E081E090E0022E02C0880F991F0A9440
:1010F000E2F7809584238C9329C0A4E3B0E0E4E375
:10110000F0E08081482F8A81282F30E081E090E054
:10111000022E02C0880F991F0A94E2F7809584235B
:101120008C9314C0A1E3B0E0E1E3F0E08081482FAC
:101130008A81282F30E081E090E0022E02C0880FE3
:10114000991F0A94E2F7809584238C9327960FB613
:10115000F894DEBF0FBECDBFCF91DF910895DF932E
:10116000CF93CDB7DEB727970FB6F894DEBF0FBE8B
:10117000CDBF89836A834B838B81813009F06FC037
:101180008981282F30E03F832E838E819F8181309B
:10119000910549F12E813F81223031052CF48E8159
:1011A0009F81009761F0D2C02E813F8122303105AE
:1011B00071F18E819F8183309105E9F1C7C0ABE366
:1011C000B0E0EBE3F0E08081482F8A81282F30E007
:1011D00081E090E0022E02C0880F991F0A94E2F786
:1011E000842B8C93B3C0ABE3B0E0EBE3F0E0808101
:1011F000482F8A81282F30E081E090E0022E02C043
:10120000880F991F0A94E2F7842B8C939FC0A5E363
:10121000B0E0E5E3F0E08081482F8A81282F30E0BC
:1012200081E090E0022E02C0880F991F0A94E2F735
:10123000842B8C938BC0A2E3B0E0E2E3F0E08081EA
:10124000482F8A81282F30E081E090E0022E02C0F2
:10125000880F991F0A94E2F7842B8C9377C08B81B7
:10126000882309F073C08981282F30E03D832C83C7
:101270008C819D818130910559F12C813D812230F5
:1012800031052CF48C819D81009769F05FC02C8121
:101290003D812230310589F18C819D81833091051A
:1012A00009F440C053C0ABE3B0E0EBE3F0E0808171
:1012B000482F8A81282F30E081E090E0022E02C082
:1012C000880F991F0A94E2F7809584238C933EC07F
:1012D000A8E3B0E0E8E3F0E08081482F8A81282F7E
:1012E00030E081E090E0022E02C0880F991F0A943E
:1012F000E2F7809584238C9329C0A5E3B0E0E5E371
:10130000F0E08081482F8A81282F30E081E090E052
:10131000022E02C0880F991F0A94E2F78095842359
:101320008C9314C0A2E3B0E0E2E3F0E08081482FA8
:101330008A81282F30E081E090E0022E02C0880FE1
:10134000991F0A94E2F7809584238C9327960FB611
:10135000F894DEBF0FBECDBFCF91DF910895DF932C
:10136000CF9300D000D00F92CDB7DEB78A836B83C6
:1013700019828A81282F30E03D832C834C815D8146
:101380004130510541F18C819D818230910534F4C9
:101390002C813D812115310561F052C04C815D8168
:1013A0004230510551F18C819D8183309105B9F115
:1013B00047C0E9E3F0E08081282F30E08B81882F5F
:1013C00090E0A90102C0559547958A95E2F7CA01B8
:1013D0008170898335C0E6E3F0E08081282F30E01A
:1013E0008B81882F90E0A90102C0559547958A9579
:1013F000E2F7CA018170898323C0E3E3F0E08081D2
:10140000282F30E08B81882F90E0A90102C05595EC
:1014100047958A95E2F7CA018170898311C0E0E39C
:10142000F0E08081282F30E08B81882F90E0A901A7
:1014300002C0559547958A95E2F7CA018170898364
:1014400089810F900F900F900F900F90CF91DF91A7
:101450000895DF93CF9300D000D0CDB7DEB7898356
:101460006A838981282F30E03C832B838B819C8188
:1014700081309105D1F02B813C81223031052CF453
:101480008B819C81009761F01EC02B813C812230B2
:10149000310581F08B819C818330910581F013C0EF
:1014A000EAE3F0E08A8180830EC0E7E3F0E08A811E
:1014B000808309C0E4E3F0E08A81808304C0E1E333
:1014C000F0E08A8180830F900F900F900F90CF9162
:1014D000DF910895DF93CF9300D000D0CDB7DEB772
:1014E00089836A838981282F30E03C832B838B8119
:1014F0009C8181309105D1F02B813C8122303105D6
:101500002CF48B819C81009761F01EC02B813C8163
:101510002230310581F08B819C818330910581F0EF
:1015200013C0EBE3F0E08A8180830EC0E8E3F0E0D3
:101530008A81808309C0E5E3F0E08A81808304C06A
:10154000E2E3F0E08A8180830F900F900F900F907C
:10155000CF91DF910895DF93CF9300D000D0CDB726
:10156000DEB78A8319828A81282F30E03C832B835F
:101570008B819C8181309105D1F02B813C8122307F
:1015800031052CF48B819C81009761F01EC02B816A
:101590003C812230310581F08B819C818330910523
:1015A00081F013C0E9E3F0E0808189830EC0E6E3B7
:1015B000F0E08081898309C0E3E3F0E080818983E2
:1015C00004C0E0E3F0E08081898389810F900F906F
:1015D0000F900F90CF91DF910895DF93CF93CDB708
:1015E000DEB7A1E3B0E0E1E3F0E0808184608C93BA
:1015F000A1E3B0E0E1E3F0E08081877F8C93CF91BD
:10160000DF910895DF93CF93CDB7DEB76E970FB616
:10161000F894DEBF0FBECDBFA2E3B0E0E2E3F0E09E
:10162000808184608C9380E090E0A0E2B1E48D8BB7
:101630009E8BAF8BB88F6D897E898F89988D20E0C6
:1016400030E040E850E40E941F02DC01CB01898BAE
:101650009A8BAB8BBC8B69897A898B899C8920E0BA
:1016600030E040E85FE30E94250488231CF481E019
:10167000888B91C069897A898B899C8920E030E0C8
:101680004FE753E40E94C50318160CF07BC06D8928
:101690007E898F89988D20E030E04AE754E40E94EB
:1016A0001903DC01CB018C879D87AE87BF876C85D2
:1016B0007D858E859F8520E030E84BE355E40E94D0
:1016C0001F02DC01CB0188879987AA87BB876885C1
:1016D00079858A859B8520E030E040E85FE30E94C1
:1016E000250488232CF481E090E09F838E833FC003
:1016F000688579858A859B8520E03FEF4FE757E431
:101700000E94C50318164CF56C857D858E859F85D6
:1017100020E030E040E251E40E941F02DC01CB01F6
:10172000BC01CD010E944900DC01CB019F838E8367
:101730000FC08CE291E09D838C838C819D81019709
:10174000F1F79D838C838E819F8101979F838E8388
:101750008E819F81009769F724C0688579858A8585
:101760009B850E944900DC01CB019F838E838E8183
:101770009F819B838A838A819B810197F1F79B8359
:101780008A830FC069897A898B899C890E94490064
:10179000DC01CB01888B8889898389818A95F1F75F
:1017A0008983A2E3B0E0E2E3F0E080818B7F8C9359
:1017B000E0E3F0E08081882F90E0887090700097DF
:1017C000B9F3ECE4F0E011821082AEE4B0E0EEE4B4
:1017D000F0E0808182608C93E0E3F0E08081882FEC
:1017E00090E0887090700097B9F7ECE4F0E08081A9
:1017F0009181CC01A0E0B0E0898F9A8FAB8FBC8F34
:10180000898D9A8DAB8DBC8D2AE330E040E050E0AD
:10181000BC01CD010E945F0FDA01C9019E8F8D8F3F
:101820008D8D9E8D6E960FB6F894DEBF0FBECDBF28
:10183000CF91DF910895DF93CF93CDB7DEB782E0EC
:1018400060E041E00E94AF0782E061E041E00E9479
:10185000AF0782E062E041E00E94AF0782E063E010
:1018600041E00E94AF0782E064E041E00E94AF07E0
:1018700082E065E041E00E94AF070E942807CF9117
:10188000DF910895DF93CF9300D0CDB7DEB79A8371
:10189000898389819A810E9478070F900F90CF9158
:1018A000DF910895DF93CF9300D0CDB7DEB7898362
:1018B0006A838A81882321F58981882379F4A5E3C5
:1018C000B0E0E5E3F0E0808182608C93A5E3B0E0D6
:1018D000E5E3F0E080818B7F8C9338C08981813093
:1018E000A9F5A5E3B0E0E5E3F0E080818D7F8C937E
:1018F000A5E3B0E0E5E3F0E0808184608C9326C04E
:101900008A81813019F58981882379F4A5E3B0E0D3
:10191000E5E3F0E0808180618C93A5E3B0E0E5E34E
:10192000F0E080818F7D8C9311C08981813071F4CA
:10193000A5E3B0E0E5E3F0E080818F7E8C93A5E342
:10194000B0E0E5E3F0E0808180628C930F900F902F
:10195000CF91DF910895DF93CF9300D000D0CDB722
:10196000DEB79A8389836B834C8382E060E041E039
:101970000E94AF0882E063E041E00E94AF088981E5
:101980009A810E94420C8B8160E00E94520C8C81F3
:1019900061E00E94520C0F900F900F900F90CF912A
:1019A000DF910895DF93CF93CDB7DEB782E060E09B
:1019B00040E00E94AF0882E063E040E00E94AF0890
:1019C000CF91DF910895DF93CF93CDB7DEB7A7E333
:1019D000B0E0E7E3F0E080818E7F8C93CF91DF91E0
:1019E0000895DF93CF9300D0CDB7DEB7E6E3F0E004
:1019F0008081882F90E081709070882329F081E0A9
:101A000090E09A83898302C01A82198289819A811F
:101A10000F900F90CF91DF910895DF93CF93CDB7C3
:101A2000DEB7CF91DF910895DF93CF9300D00F926F
:101A3000CDB7DEB78B830E94610688E660E00E9426
:101A400089068B810E94B4060E94750688E661E0D3
:101A50000E948906CE01039661E00E94CF06882F7E
:101A600090E0982F88279A838983CE01039660E0BF
:101A70000E94CF06282F30E089819A81822B932BF8
:101A80009A8389830E940E0789819A810F900F9013
:101A90000F90CF91DF910895DF93CF93CDB7DEB74D
:101AA00083E062E040E00E94AF0783E063E040E053
:101AB0000E94AF0783E062E041E00E94AF0883E04C
:101AC00063E041E00E94AF08CF91DF910895DF937A
:101AD000CF930F92CDB7DEB7E0E3F0E080818C705A
:101AE000898380918000882369F48981813051F451
:101AF00080917E0090917F00019690937F0080936B
:101B00007E0032C080918000813069F48981833009
:101B100051F480917E0090917F00019690937F0018
:101B200080937E0021C080918000833069F4898198
:101B3000823051F480917E0090917F0001979093C4
:101B40007F0080937E0010C080918000823061F41D
:101B50008981882349F480917E0090917F000197CC
:101B600090937F0080937E008981809380002091F4
:101B70007E0030917F0000D000D0EDB7FEB73196E7
:101B800080E690E091838083338322830E94B80FA4
:101B90000F900F900F900F9080917E0090917F009A
:101BA0000F90CF91DF910895DF93CF93CDB7DEB73C
:101BB000AA970FB6F894DEBF0FBECDBF0E942807CC
:101BC0000E941B0CE7E3F0E081E0808384E690E074
:101BD00061E041E00E94AB0C80E090E0AAEFB4E449
:101BE0008FA398A7A9A7BAA76FA178A589A59AA539
:101BF00020E030E84BE355E40E941F02DC01CB01FA
:101C00008BA39CA3ADA3BEA36BA17CA18DA19EA120
:101C100020E030E040E85FE30E94250488232CF4B4
:101C200081E090E09AA389A33FC06BA17CA18DA124
:101C30009EA120E03FEF4FE757E40E94C50318162E
:101C40004CF56FA178A589A59AA520E030E040E287
:101C500051E40E941F02DC01CB01BC01CD010E94B6
:101C60004900DC01CB019AA389A30FC08CE291E06B
:101C700098A38F8F8F8D98A10197F1F798A38F8FDD
:101C800089A19AA101979AA389A389A19AA10097F2
:101C900069F714C06BA17CA18DA19EA10E9449008F
:101CA000DC01CB019AA389A389A19AA19E8F8D8F74
:101CB0008D8D9E8D0197F1F79E8F8D8F0E94D20C96
:101CC00080E090E0AAEFB4E4898F9A8FAB8FBC8F4D
:101CD000698D7A8D8B8D9C8D20E030E84BE355E447
:101CE0000E941F02DC01CB018D8B9E8BAF8BB88FC6
:101CF0006D897E898F89988D20E030E040E85FE330
:101D00000E94250488232CF481E090E09C8B8B8B2F
:101D10003FC06D897E898F89988D20E03FEF4FE726
:101D200057E40E94C50318164CF5698D7A8D8B8D8A
:101D30009C8D20E030E040E251E40E941F02DC0173
:101D4000CB01BC01CD010E944900DC01CB019C8B81
:101D50008B8B0FC08CE291E09A8B898B89899A8951
:101D60000197F1F79A8B898B8B899C8901979C8BC2
:101D70008B8B8B899C89009769F714C06D897E894C
:101D80008F89988D0E944900DC01CB019C8B8B8B45
:101D90008B899C89988B8F878F8598890197F1F71C
:101DA000988B8F8782E390E061E041E00E94AB0C6A
:101DB00080E090E0AAEFB4E48B879C87AD87BE8774
:101DC0006B857C858D859E8520E030E84BE355E46E
:101DD0000E941F02DC01CB018F839887A987BA87F5
:101DE0006F81788589859A8520E030E040E85FE35F
:101DF0000E94250488232CF481E090E09E838D834B
:101E00003FC06F81788589859A8520E03FEF4FE755
:101E100057E40E94C50318164CF56B857C858D85AB
:101E20009E8520E030E040E251E40E941F02DC0188
:101E3000CB01BC01CD010E944900DC01CB019E8396
:101E40008D830FC08CE291E09C838B838B819C817E
:101E50000197F1F79C838B838D819E8101979E83EF
:101E60008D838D819E81009769F7B0CE6F817885D3
:101E700089859A850E944900DC01CB019E838D8370
:101E80008D819E819A83898389819A810197F1F757
:101E90009A8389839BCEAA1BBB1B51E107C0AA1F53
:101EA000BB1FA617B70710F0A61BB70B881F991FFB
:101EB0005A95A9F780959095BC01CD010895A1E2AE
:101EC0001A2EAA1BBB1BFD010DC0AA1FBB1FEE1FB4
:101ED000FF1FA217B307E407F50720F0A21BB30BFF
:101EE000E40BF50B661F771F881F991F1A9469F77B
:101EF00060957095809590959B01AC01BD01CF01D7
:101F000008952F923F924F925F926F927F928F929D
:101F10009F92AF92BF92CF92DF92EF92FF920F9378
:101F20001F93CF93DF93CDB7DEB7CA1BDB0B0FB682
:101F3000F894DEBF0FBECDBF09942A88398848883F
:101F40005F846E847D848C849B84AA84B984C884D5
:101F5000DF80EE80FD800C811B81AA81B981CE0FCC
:101F6000D11D0FB6F894DEBF0FBECDBFED010895B1
:101F7000A0E0B0E0EEEBFFE00C94910FFE0135968F
:101F8000619171918091830090918400AF010E94D2
:101F9000CD0F2096E2E00C94AD0FABE0B0E0E3EDA6
:101FA000FFE00C94810F3C012B015A01FC011782C8
:101FB0001682838181FD03C06FEF7FEFC6C19AE077
:101FC000892E1E010894211C311CF3012381F2018A
:101FD00023FD859123FF81912F01882309F4B2C14C
:101FE000853239F423FD859123FF81912F018532BC
:101FF00029F490E0B3010E94C011E7CF982FFF248D
:10200000EE249924FFE1FF15D0F09B3269F09C3259
:1020100028F4903259F0933291F40EC09D3249F079
:10202000903369F441E024C052E0F52A84E0F82AB4
:1020300028C098E0F92A25C0E0E1FE2A22C0F7FC7A
:1020400029C0892F80538A3070F4F6FE05C0989C11
:10205000902C1124980E15C0E89CE02C1124E80E59
:10206000F0E2FF2A0EC09E3229F4F6FC6BC140E478
:10207000F42A07C09C3619F450E8F52A02C09836B5
:1020800049F4F20123FD959123FF91912F019923AA
:1020900009F0B8CF892F8554833018F080528330EF
:1020A00038F444E050E0A40EB51E5FE359830FC03E
:1020B000933631F0933779F0933509F056C020C04C
:1020C000F5018081898342E050E0A40EB51E6101D4
:1020D00001E010E012C0F501C080D180F6FC03C021
:1020E0006FEF7FEF02C0692D70E042E050E0A40E78
:1020F000B51EC6010E94B5118C015FE7F52214C020
:10210000F501C080D180F6FC03C06FEF7FEF02C005
:10211000692D70E042E050E0A40EB51EC6010E9499
:10212000AA118C0150E8F52AF3FE07C01AC080E21C
:1021300090E0B3010E94C011EA948E2D90E0081740
:102140001907A8F30EC0F601F7FC8591F7FE8191FF
:102150006F0190E0B3010E94C011E110EA940150B8
:1021600010400115110579F7EAC0943611F099363F
:1021700069F5F7FE08C0F501208131814281538164
:1021800084E090E00AC0F501808191819C014427A0
:1021900037FD4095542F82E090E0A80EB91E9FE6CF
:1021A000F92257FF09C050954095309521953F4F32
:1021B0004F4F5F4FE0E8FE2ACA01B901A1012AE0B2
:1021C00030E00E94EC11D82ED21840C0953729F487
:1021D0001F2D1F7E2AE030E01DC01F2D197F9F3666
:1021E00061F0903720F4983509F0ACC00FC09037FB
:1021F00039F0983709F0A6C004C028E030E00AC0E2
:10220000106114FD146020E130E004C014FD16607C
:1022100020E132E017FF08C0F50160817181828101
:10222000938144E050E008C0F50180819181BC01B8
:1022300080E090E042E050E0A40EB51EA1010E94B3
:10224000EC11D82ED2188FE7F82EF122F6FE0BC033
:102250005EEFF522D91438F4F4FE07C0F2FC05C095
:102260008FEEF82202C01D2D01C0192DF4FE0DC005
:10227000FE01ED0DF11D8081803319F499EEF922F4
:1022800008C01F5FF2FE05C003C08F2D867809F0DD
:102290001F5F0F2DF3FC14C0F0FE0FC01E1510F0D1
:1022A0009D2C0BC09D2C9E0C911A1E2D06C080E209
:1022B00090E0B3010E94C0111F5F1E15C0F304C05F
:1022C0001E1510F4E11A01C0EE2404FF0FC080E3D4
:1022D00090E0B3010E94C01102FF1DC001FD03C0C8
:1022E00088E790E00EC088E590E00BC0802F8678EC
:1022F00091F001FF02C08BE201C080E2F7FC8DE2A9
:1023000090E0B3010E94C01106C080E390E0B301E9
:102310000E94C0119A94D914C0F3DA94F101ED0D22
:10232000F11D808190E0B3010E94C011DD20A9F76A
:1023300006C080E290E0B3010E94C011EA94EE2052
:10234000C1F743CEF30166817781CB012B96E2E1A1
:102350000C949D0FFC010590615070400110D8F75E
:10236000809590958E0F9F1F0895FC0161507040DD
:1023700001900110D8F7809590958E0F9F1F0895BA
:102380000F931F93CF93DF938C01EB018B8181FF20
:102390001BC082FF0DC02E813F818C819D8128173B
:1023A000390764F4E881F9810193F983E88306C071
:1023B000E885F985802F0995892B31F48E819F81DD
:1023C00001969F838E8302C00FEF1FEFC801DF913C
:1023D000CF911F910F910895FA01AA27283051F14A
:1023E000203181F1E8946F936E7F6E5F7F4F8F4F46
:1023F0009F4FAF4FB1E03ED0B4E03CD0670F781FA5
:10240000891F9A1FA11D680F791F8A1F911DA11D89
:102410006A0F711D811D911DA11D20D009F46894C2
:102420003F912AE0269F11243019305D3193DEF66A
:10243000CF010895462F4770405D4193B3E00FD020
:10244000C9F7F6CF462F4F70405D4A3318F0495D0B
:1024500031FD4052419302D0A9F7EACFB4E0A695EE
:102460009795879577956795BA95C9F70097610510
:10247000710508959B01AC010A2E06945795479566
:1024800037952795BA95C9F7620F731F841F951F5B
:08249000A01D0895F894FFCF90
:10249800506F736974696F6E204368616E67653A3F
:0E24A8002025640A0000000000000000000073
:00000001FF
